{
  "contractName": "LandRecord",
  "abi": [
    {
      "inputs": [],
      "stateMutability": "nonpayable",
      "type": "constructor"
    },
    {
      "anonymous": false,
      "inputs": [
        {
          "indexed": false,
          "internalType": "string",
          "name": "titleDeedNumber",
          "type": "string"
        }
      ],
      "name": "RecordVerified",
      "type": "event"
    },
    {
      "inputs": [],
      "name": "admin",
      "outputs": [
        {
          "internalType": "address",
          "name": "",
          "type": "address"
        }
      ],
      "stateMutability": "view",
      "type": "function",
      "constant": true
    },
    {
      "inputs": [
        {
          "internalType": "string",
          "name": "",
          "type": "string"
        }
      ],
      "name": "records",
      "outputs": [
        {
          "internalType": "string",
          "name": "titleDeedNumber",
          "type": "string"
        },
        {
          "internalType": "string",
          "name": "owner",
          "type": "string"
        },
        {
          "internalType": "bool",
          "name": "verified",
          "type": "bool"
        }
      ],
      "stateMutability": "view",
      "type": "function",
      "constant": true
    },
    {
      "inputs": [
        {
          "internalType": "string",
          "name": "_titleDeedNumber",
          "type": "string"
        }
      ],
      "name": "verifyRecord",
      "outputs": [],
      "stateMutability": "nonpayable",
      "type": "function"
    }
  ],
  "bytecode": "0x608060405234801561001057600080fd5b5033600160006101000a81548173ffffffffffffffffffffffffffffffffffffffff021916908373ffffffffffffffffffffffffffffffffffffffff160217905550610742806100616000396000f3fe608060405234801561001057600080fd5b50600436106100415760003560e01c8063541e771d14610046578063c40e582414610078578063f851a44014610094575b600080fd5b610060600480360381019061005b91906103a1565b6100b2565b60405161006f939291906104fe565b60405180910390f35b610092600480360381019061008d91906103a1565b61020f565b005b61009c610313565b6040516100a991906104c1565b60405180910390f35b6000818051602081018201805184825260208301602085012081835280955050505050506000915090508060000180546100eb9061066b565b80601f01602080910402602001604051908101604052809291908181526020018280546101179061066b565b80156101645780601f1061013957610100808354040283529160200191610164565b820191906000526020600020905b81548152906001019060200180831161014757829003601f168201915b5050505050908060010180546101799061066b565b80601f01602080910402602001604051908101604052809291908181526020018280546101a59061066b565b80156101f25780601f106101c7576101008083540402835291602001916101f2565b820191906000526020600020905b8154815290600101906020018083116101d557829003601f168201915b5050505050908060020160009054906101000a900460ff16905083565b600160009054906101000a900473ffffffffffffffffffffffffffffffffffffffff1673ffffffffffffffffffffffffffffffffffffffff163373ffffffffffffffffffffffffffffffffffffffff161461029f576040517f08c379a000000000000000000000000000000000000000000000000000000000815260040161029690610543565b60405180910390fd5b60016000826040516102b191906104aa565b908152602001604051809103902060020160006101000a81548160ff0219169083151502179055507f8715fc77b666925b2e270c8d8aa01a25d2988796431a5b4e4496f226b8c923478160405161030891906104dc565b60405180910390a150565b600160009054906101000a900473ffffffffffffffffffffffffffffffffffffffff1681565b600061034c61034784610594565b610563565b90508281526020810184848401111561036457600080fd5b61036f848285610629565b509392505050565b600082601f83011261038857600080fd5b8135610398848260208601610339565b91505092915050565b6000602082840312156103b357600080fd5b600082013567ffffffffffffffff8111156103cd57600080fd5b6103d984828501610377565b91505092915050565b6103eb816105eb565b82525050565b6103fa816105fd565b82525050565b600061040b826105c4565b61041581856105cf565b9350610425818560208601610638565b61042e816106fb565b840191505092915050565b6000610444826105c4565b61044e81856105e0565b935061045e818560208601610638565b80840191505092915050565b6000610477600a836105cf565b91507f4f6e6c792061646d696e000000000000000000000000000000000000000000006000830152602082019050919050565b60006104b68284610439565b915081905092915050565b60006020820190506104d660008301846103e2565b92915050565b600060208201905081810360008301526104f68184610400565b905092915050565b600060608201905081810360008301526105188186610400565b9050818103602083015261052c8185610400565b905061053b60408301846103f1565b949350505050565b6000602082019050818103600083015261055c8161046a565b9050919050565b6000604051905081810181811067ffffffffffffffff8211171561058a576105896106cc565b5b8060405250919050565b600067ffffffffffffffff8211156105af576105ae6106cc565b5b601f19601f8301169050602081019050919050565b600081519050919050565b600082825260208201905092915050565b600081905092915050565b60006105f682610609565b9050919050565b60008115159050919050565b600073ffffffffffffffffffffffffffffffffffffffff82169050919050565b82818337600083830152505050565b60005b8381101561065657808201518184015260208101905061063b565b83811115610665576000848401525b50505050565b6000600282049050600182168061068357607f821691505b602082108114156106975761069661069d565b5b50919050565b7f4e487b7100000000000000000000000000000000000000000000000000000000600052602260045260246000fd5b7f4e487b7100000000000000000000000000000000000000000000000000000000600052604160045260246000fd5b6000601f19601f830116905091905056fea26469706673582212209cb497ea22b28804fb2302a8a97d4d25e8ef108739532f169805fe45fbf89a4364736f6c63430008000033",
  "immutableReferences": {},
  "source": "// SPDX-License-Identifier: MIT\r\npragma solidity ^0.8.0;\r\n\r\ncontract LandRecord {\r\n    struct Record {\r\n        string titleDeedNumber;\r\n        string owner;\r\n        bool verified;\r\n    }\r\n    \r\n    mapping(string => Record) public records;\r\n    address public admin;\r\n\r\n    event RecordVerified(string titleDeedNumber);\r\n\r\n    constructor() {\r\n        admin = msg.sender;\r\n    }\r\n\r\n    function verifyRecord(string memory _titleDeedNumber) public {\r\n        require(msg.sender == admin, \"Only admin\");\r\n        records[_titleDeedNumber].verified = true;\r\n        emit RecordVerified(_titleDeedNumber);\r\n    }\r\n}",
  "sourcePath": "C:\\Land-title-management\\contracts\\LandRecord.sol",
  "compiler": {
    "name": "solc",
    "version": "0.8.0+commit.c7dfd78e.Emscripten.clang"
  },
  "schemaVersion": "3.4.16",
  "updatedAt": "2025-06-24T20:03:49.822Z",
  "networkType": "ethereum",
  "devdoc": {
    "kind": "dev",
    "methods": {},
    "version": 1
  },
  "userdoc": {
    "kind": "user",
    "methods": {},
    "version": 1
  }
}