{
  "contractName": "LandRecord",
  "abi": [
    {
      "inputs": [],
      "stateMutability": "nonpayable",
      "type": "constructor"
    },
    {
      "anonymous": false,
      "inputs": [
        {
          "indexed": false,
          "internalType": "string",
          "name": "titleDeedNumber",
          "type": "string"
        }
      ],
      "name": "RecordVerified",
      "type": "event"
    },
    {
      "inputs": [],
      "name": "admin",
      "outputs": [
        {
          "internalType": "address",
          "name": "",
          "type": "address"
        }
      ],
      "stateMutability": "view",
      "type": "function",
      "constant": true
    },
    {
      "inputs": [
        {
          "internalType": "string",
          "name": "",
          "type": "string"
        }
      ],
      "name": "records",
      "outputs": [
        {
          "internalType": "string",
          "name": "titleDeedNumber",
          "type": "string"
        },
        {
          "internalType": "string",
          "name": "owner",
          "type": "string"
        },
        {
          "internalType": "bool",
          "name": "verified",
          "type": "bool"
        }
      ],
      "stateMutability": "view",
      "type": "function",
      "constant": true
    },
    {
      "inputs": [
        {
          "internalType": "string",
          "name": "_titleDeedNumber",
          "type": "string"
        }
      ],
      "name": "verifyRecord",
      "outputs": [],
      "stateMutability": "nonpayable",
      "type": "function"
    },
    {
      "inputs": [
        {
          "internalType": "string",
          "name": "_titleDeedNumber",
          "type": "string"
        },
        {
          "internalType": "string",
          "name": "_owner",
          "type": "string"
        }
      ],
      "name": "addRecord",
      "outputs": [],
      "stateMutability": "nonpayable",
      "type": "function"
    }
  ],
  "bytecode": "0x608060405234801561001057600080fd5b5033600160006101000a81548173ffffffffffffffffffffffffffffffffffffffff021916908373ffffffffffffffffffffffffffffffffffffffff160217905550610a74806100616000396000f3fe608060405234801561001057600080fd5b506004361061004c5760003560e01c8063541e771d14610051578063c40e582414610083578063c95962481461009f578063f851a440146100bb575b600080fd5b61006b60048036038101906100669190610607565b6100d9565b60405161007a93929190610810565b60405180910390f35b61009d60048036038101906100989190610607565b610236565b005b6100b960048036038101906100b49190610648565b61033a565b005b6100c36104d6565b6040516100d091906107d3565b60405180910390f35b6000818051602081018201805184825260208301602085012081835280955050505050506000915090508060000180546101129061099d565b80601f016020809104026020016040519081016040528092919081815260200182805461013e9061099d565b801561018b5780601f106101605761010080835404028352916020019161018b565b820191906000526020600020905b81548152906001019060200180831161016e57829003601f168201915b5050505050908060010180546101a09061099d565b80601f01602080910402602001604051908101604052809291908181526020018280546101cc9061099d565b80156102195780601f106101ee57610100808354040283529160200191610219565b820191906000526020600020905b8154815290600101906020018083116101fc57829003601f168201915b5050505050908060020160009054906101000a900460ff16905083565b600160009054906101000a900473ffffffffffffffffffffffffffffffffffffffff1673ffffffffffffffffffffffffffffffffffffffff163373ffffffffffffffffffffffffffffffffffffffff16146102c6576040517f08c379a00000000000000000000000000000000000000000000000000000000081526004016102bd90610855565b60405180910390fd5b60016000826040516102d891906107bc565b908152602001604051809103902060020160006101000a81548160ff0219169083151502179055507f8715fc77b666925b2e270c8d8aa01a25d2988796431a5b4e4496f226b8c923478160405161032f91906107ee565b60405180910390a150565b600160009054906101000a900473ffffffffffffffffffffffffffffffffffffffff1673ffffffffffffffffffffffffffffffffffffffff163373ffffffffffffffffffffffffffffffffffffffff16146103ca576040517f08c379a00000000000000000000000000000000000000000000000000000000081526004016103c190610855565b60405180910390fd5b600080836040516103db91906107bc565b908152602001604051809103902060000180546103f79061099d565b905014610439576040517f08c379a000000000000000000000000000000000000000000000000000000000815260040161043090610875565b60405180910390fd5b60405180606001604052808381526020018281526020016000151581525060008360405161046791906107bc565b908152602001604051809103902060008201518160000190805190602001906104919291906104fc565b5060208201518160010190805190602001906104ae9291906104fc565b5060408201518160020160006101000a81548160ff0219169083151502179055509050505050565b600160009054906101000a900473ffffffffffffffffffffffffffffffffffffffff1681565b8280546105089061099d565b90600052602060002090601f01602090048101928261052a5760008555610571565b82601f1061054357805160ff1916838001178555610571565b82800160010185558215610571579182015b82811115610570578251825591602001919060010190610555565b5b50905061057e9190610582565b5090565b5b8082111561059b576000816000905550600101610583565b5090565b60006105b26105ad846108c6565b610895565b9050828152602081018484840111156105ca57600080fd5b6105d584828561095b565b509392505050565b600082601f8301126105ee57600080fd5b81356105fe84826020860161059f565b91505092915050565b60006020828403121561061957600080fd5b600082013567ffffffffffffffff81111561063357600080fd5b61063f848285016105dd565b91505092915050565b6000806040838503121561065b57600080fd5b600083013567ffffffffffffffff81111561067557600080fd5b610681858286016105dd565b925050602083013567ffffffffffffffff81111561069e57600080fd5b6106aa858286016105dd565b9150509250929050565b6106bd8161091d565b82525050565b6106cc8161092f565b82525050565b60006106dd826108f6565b6106e78185610901565b93506106f781856020860161096a565b61070081610a2d565b840191505092915050565b6000610716826108f6565b6107208185610912565b935061073081856020860161096a565b80840191505092915050565b6000610749600a83610901565b91507f4f6e6c792061646d696e000000000000000000000000000000000000000000006000830152602082019050919050565b6000610789601583610901565b91507f5265636f726420616c72656164792065786973747300000000000000000000006000830152602082019050919050565b60006107c8828461070b565b915081905092915050565b60006020820190506107e860008301846106b4565b92915050565b6000602082019050818103600083015261080881846106d2565b905092915050565b6000606082019050818103600083015261082a81866106d2565b9050818103602083015261083e81856106d2565b905061084d60408301846106c3565b949350505050565b6000602082019050818103600083015261086e8161073c565b9050919050565b6000602082019050818103600083015261088e8161077c565b9050919050565b6000604051905081810181811067ffffffffffffffff821117156108bc576108bb6109fe565b5b8060405250919050565b600067ffffffffffffffff8211156108e1576108e06109fe565b5b601f19601f8301169050602081019050919050565b600081519050919050565b600082825260208201905092915050565b600081905092915050565b60006109288261093b565b9050919050565b60008115159050919050565b600073ffffffffffffffffffffffffffffffffffffffff82169050919050565b82818337600083830152505050565b60005b8381101561098857808201518184015260208101905061096d565b83811115610997576000848401525b50505050565b600060028204905060018216806109b557607f821691505b602082108114156109c9576109c86109cf565b5b50919050565b7f4e487b7100000000000000000000000000000000000000000000000000000000600052602260045260246000fd5b7f4e487b7100000000000000000000000000000000000000000000000000000000600052604160045260246000fd5b6000601f19601f830116905091905056fea264697066735822122080411329622fa8d1cc741acf9f76cb3ca95f25186699f43116a94a80dafa52a364736f6c63430008000033",
  "immutableReferences": {},
  "source": "// SPDX-License-Identifier: MIT\r\npragma solidity ^0.8.0;\r\n\r\ncontract LandRecord {\r\n    struct Record {\r\n        string titleDeedNumber;\r\n        string owner;\r\n        bool verified;\r\n    }\r\n    \r\n    mapping(string => Record) public records;\r\n    address public admin;\r\n\r\n    event RecordVerified(string titleDeedNumber);\r\n\r\n    constructor() {\r\n        admin = msg.sender;\r\n    }\r\n\r\n    function verifyRecord(string memory _titleDeedNumber) public {\r\n        require(msg.sender == admin, \"Only admin\");\r\n        records[_titleDeedNumber].verified = true;\r\n        emit RecordVerified(_titleDeedNumber);\r\n    }\r\n\r\n    function addRecord(string memory _titleDeedNumber, string memory _owner) public {\r\n        require(msg.sender == admin, \"Only admin\");\r\n        require(bytes(records[_titleDeedNumber].titleDeedNumber).length == 0, \"Record already exists\");\r\n        records[_titleDeedNumber] = Record({\r\n            titleDeedNumber: _titleDeedNumber,\r\n            owner: _owner,\r\n            verified: false\r\n        });\r\n    }\r\n}",
  "sourcePath": "C:\\Land-title-management\\contracts\\LandRecord.sol",
  "compiler": {
    "name": "solc",
    "version": "0.8.0+commit.c7dfd78e.Emscripten.clang"
  },
  "schemaVersion": "3.4.16",
  "updatedAt": "2025-07-03T08:32:15.342Z",
  "networkType": "ethereum",
  "devdoc": {
    "kind": "dev",
    "methods": {},
    "version": 1
  },
  "userdoc": {
    "kind": "user",
    "methods": {},
    "version": 1
  }
}